{
  "contractName": "HashStorage",
  "abi": [
    {
      "anonymous": false,
      "inputs": [
        {
          "indexed": false,
          "name": "id",
          "type": "uint256"
        },
        {
          "indexed": false,
          "name": "ipfsValue",
          "type": "string"
        },
        {
          "indexed": false,
          "name": "fileName",
          "type": "string"
        },
        {
          "indexed": false,
          "name": "receiver",
          "type": "address"
        },
        {
          "indexed": false,
          "name": "sender",
          "type": "address"
        }
      ],
      "name": "ShareFile",
      "type": "event",
      "signature": "0x3f00a9c4decdd9fa678c93ab57c95d39789c23af1419de18fe8c23b64460a5d2"
    },
    {
      "constant": false,
      "inputs": [
        {
          "name": "x",
          "type": "string"
        },
        {
          "name": "y",
          "type": "string"
        }
      ],
      "name": "uploadHash",
      "outputs": [],
      "payable": false,
      "stateMutability": "nonpayable",
      "type": "function",
      "signature": "0x9c471253"
    },
    {
      "constant": true,
      "inputs": [],
      "name": "getHash",
      "outputs": [
        {
          "name": "",
          "type": "string"
        }
      ],
      "payable": false,
      "stateMutability": "view",
      "type": "function",
      "signature": "0xd13319c4"
    }
  ],
  "bytecode": "0x608060405234801561001057600080fd5b506105c3806100206000396000f3fe60806040526004361061004c576000357c0100000000000000000000000000000000000000000000000000000000900463ffffffff1680639c47125314610051578063d13319c4146101b0575b600080fd5b34801561005d57600080fd5b506101ae6004803603604081101561007457600080fd5b810190808035906020019064010000000081111561009157600080fd5b8201836020820111156100a357600080fd5b803590602001918460018302840111640100000000831117156100c557600080fd5b91908080601f016020809104026020016040519081016040528093929190818152602001838380828437600081840152601f19601f8201169050808301925050505050505091929192908035906020019064010000000081111561012857600080fd5b82018360208201111561013a57600080fd5b8035906020019184600183028401116401000000008311171561015c57600080fd5b91908080601f016020809104026020016040519081016040528093929190818152602001838380828437600081840152601f19601f820116905080830192505050505050509192919290505050610240565b005b3480156101bc57600080fd5b506101c5610450565b6040518080602001828103825283818151815260200191508051906020019080838360005b838110156102055780820151818401526020810190506101ea565b50505050905090810190601f1680156102325780820380516001836020036101000a031916815260200191505b509250505060405180910390f35b81600090805190602001906102569291906104f2565b50806001908051906020019061026d9291906104f2565b507f3f00a9c4decdd9fa678c93ab57c95d39789c23af1419de18fe8c23b64460a5d260016000600173cd90395ef46b2de4410de9c189d6cc90badfd97b737df61a1514aa8a8abf66866f34b410ee5150274c6040518086815260200180602001806020018573ffffffffffffffffffffffffffffffffffffffff1673ffffffffffffffffffffffffffffffffffffffff1681526020018473ffffffffffffffffffffffffffffffffffffffff1673ffffffffffffffffffffffffffffffffffffffff1681526020018381038352878181546001816001161561010002031660029004815260200191508054600181600116156101000203166002900480156103b65780601f1061038b576101008083540402835291602001916103b6565b820191906000526020600020905b81548152906001019060200180831161039957829003601f168201915b50508381038252868181546001816001161561010002031660029004815260200191508054600181600116156101000203166002900480156104395780601f1061040e57610100808354040283529160200191610439565b820191906000526020600020905b81548152906001019060200180831161041c57829003601f168201915b505097505050505050505060405180910390a15050565b606060008054600181600116156101000203166002900480601f0160208091040260200160405190810160405280929190818152602001828054600181600116156101000203166002900480156104e85780601f106104bd576101008083540402835291602001916104e8565b820191906000526020600020905b8154815290600101906020018083116104cb57829003601f168201915b5050505050905090565b828054600181600116156101000203166002900490600052602060002090601f016020900481019282601f1061053357805160ff1916838001178555610561565b82800160010185558215610561579182015b82811115610560578251825591602001919060010190610545565b5b50905061056e9190610572565b5090565b61059491905b80821115610590576000816000905550600101610578565b5090565b9056fea165627a7a72305820ae39c9c6c3abb21b0f79e6e033cf47c5afcecb69d32df1f541717ed30b8c8f100029",
  "source": "// SPDX-License-Identifier: MIT\npragma solidity >=0.4.21 <=0.8.3;\n\ncontract HashStorage {\n\n\n  string storedHash;\n  string fileName;\n\n  event ShareFile(\n    uint id,\n    string ipfsValue,\n    string fileName,\n    address receiver,\n    address sender\n  );\n\n  function uploadHash(string memory x,string memory y) public {\n    storedHash = x;\n    fileName = y;\n    emit ShareFile(1,storedHash,fileName,0xCd90395EF46b2de4410de9c189D6Cc90Badfd97b,0x7Df61A1514aa8A8ABF66866f34B410Ee5150274C);\n  }\n\n  function getHash() public view returns (string memory) {\n    return storedHash;\n\n  }\n\n\n}\n",
  "sourcePath": "C:/Users/HP/Desktop/fi-test/contracts/HashStorage.sol",
  "compiler": {
    "name": "solc",
    "version": "0.5.0+commit.1d4f565a.Emscripten.clang"
  },
  "schemaVersion": "3.0.1",
  "updatedAt": "2021-04-10T07:27:14.164Z",
  "devdoc": {
    "methods": {}
  },
  "userdoc": {
    "methods": {}
  }
}